:1000000010C01FC0C7C11DC01CC01BC082C219C008
:1000100018C017C016C015C014C013C012C011C03C
:1000200010C011241FBECFE5D2E0DEBFCDBF20E05F
:10003000A0E6B0E001C01D92A937B207E1F778D27F
:10004000D4C2DECF811102C0DF980895DF9A0895EF
:10005000B89AD49AD59AD6988DB18F718DB98DB141
:100060008A618DB9C09A8FE19EE40197F1F700C0D3
:1000700000000895C09820E030E050E0E0E424174C
:100080003507A4F4DC01FD91CD01FFB9EEB97699F5
:1000900002C0689AFCCF6115710529F0FFB1DB0140
:1000A000A20FB31FFC932F5F3F4FE9CFC09A089573
:1000B000CF93DF9300D0CDB7DEB78F718062898395
:1000C0006A8342E060E070E0CE010196D3DF0F90DA
:1000D0000F90DF91CF9108950F931F93CF93DF93EC
:1000E00000D000D0CDB7DEB78B018F718B838FEF3F
:1000F0008C8342E0BE016F5F7F4FCE010396BADF73
:100100008A81F80180830F900F900F900F90DF91FC
:10011000CF911F910F910895CF93DF9300D000D01E
:10012000CDB7DEB7FB018F718062898380818A83BE
:1001300081818B8382818C8344E060E070E0CE011A
:10014000019698DF0F900F900F900F90DF91CF9155
:100150000895CF93DF931F92CDB7DEB7898341E037
:1001600060E070E0CE01019685DF0F90DF91CF91C6
:100170000895CF93DF931F92CDB7DEB7BE016F5FB7
:100180007F4F80E0A9DF69816260698380E090DF52
:100190008FE097E20197F1F700C000000F90DF9128
:1001A000CF910895CF93DF931F92CDB7DEB7DF983D
:1001B00068E080E07DDF66E086E07ADF6CE485E081
:1001C00077DF60E081E074DF61E083E071DF60E0B1
:1001D00084E06EDF82EEBDDF81EEBBDFCADFBE01F1
:1001E0006F5F7F4F80E078DF6981616080E060DF72
:1001F0000F90DF91CF910895CF93DF9300D000D07F
:10020000CDB7DEB780E389838A8381E38B83BE0128
:100210006F5F7F4F8AE080DF62E081E149DFBE01EE
:100220006C5F7F4F82E058DF6C8161606C8382E09D
:100230003FDF0F900F900F900F90DF91CF910895B7
:1002400081E000DF8BE291E00197F1F700C0000050
:1002500081EE7FCF0F931F93CF93DF931F92CDB784
:10026000DEB78C01BE016F5F7F4F87E135DF89818B
:1002700080FF03C0F801108203C081E0F801808391
:100280000F90DF91CF911F910F910895CF93DF933E
:1002900000D01F92CDB7DEB780E389838A8381E3E4
:1002A0008B83BE016F5F7F4F8AE036DFBE016F5FD9
:1002B0007F4F80E131DF62E081E1FADE0F900F9045
:1002C0000F90DF91CF910895CF93DF931F92CDB719
:1002D000DEB7DF988BE291E00197F1F700C00000F4
:1002E000BE016F5F7F4F80E0F7DE69816E7F80E047
:1002F000DFDE81E0A7DE8BE291E00197F1F700C03D
:10030000000082EE26DF0F90DF91CF9108950F93CA
:100310001F93CF93DF93CDB7DEB70DB71EB7262F50
:1003200030E02F5F3F4F4DB75EB7421B530B0FB608
:10033000F8945EBF0FBE4DBF2DB73EB72F5F3F4F46
:1003400040EAADB7BEB711964C93A9014F5F5F4F1E
:10035000FA017E2F741B761728F4DC017D91CD0104
:100360007193F7CF41E0460F60E070E0C90182DE93
:100370000FB6F8941EBF0FBE0DBFDF91CF911F9136
:100380000F910895F89480E18BBF8ABF8EE082BB05
:10039000789408951F920F920FB60F9211242F9305
:1003A0003F938F939F9389B390E0909363008093E2
:1003B0006200809162009091630081FF0CC080EA2E
:1003C0009FE0909365008093640081E090E09093BB
:1003D000670080936600809162009091630082FFC5
:1003E0000CC0809162009091630083FF03C084E0A1
:1003F00090E00EC083E090E00BC08091620090918D
:10040000630083FF03C081E090E002C082E090E0DF
:1004100090936900809368008091600090916100E2
:10042000892B09F457C020916800309169008091B0
:10043000600090916100821793073CF481E090E0A6
:1004400090936B0080936A0004C010926B0010922E
:100450006A008091680090916900049759F4809136
:10046000600090916100019729F410926B00109246
:100470006A0012C0809168009091690081309105F6
:1004800059F420916000309161002430310521F44D
:1004900090936B0080936A0080916A0090916B004A
:1004A000019731F4809164009091650001960EC02F
:1004B0008091640090916500892B19F48FE19CE193
:1004C00005C080916400909165000197909365004C
:1004D000809364008091680090916900909361001E
:1004E000809360009F918F913F912F910F900FBE4D
:1004F0000F901F901895F8941FBC89E08EBD88E678
:100500009AE09BBD8ABD1DBC1CBC82E08CB978946E
:1005100008951F920F920FB60F9211248F9381E0CE
:1005200080936C008F910F900FBE0F901F901895C5
:10053000CF93DF9300D0CDB7DEB7BA9A2FEF81E12A
:100540009AE7215080409040E1F700C00000C29A35
:100550002FE78AE196E0215080409040E1F700C00B
:100560000000C2982FE78AE196E021508040904039
:10057000E1F700C000006CDD15DE88DEA5DE60E27C
:10058000CE010196C4DEFEDEC29A2FEF8DE399E420
:10059000215080409040E1F700C00000C2982FEF4A
:1005A00080E792E0215080409040E1F700C00000D9
:1005B000A2DF01E511E280916C008130E1F7109239
:1005C0006C00C29A809166009091670009831A833B
:1005D00062E0CE0101969BDE81E034DD28E22A95BF
:0E05E000F1F780E02FDDC298E6CFF894FFCF50
:00000001FF
