:1000000010C02AC0E5C128C027C026C09EC224C097
:1000100023C022C021C020C01FC01EC01DC01CC0E4
:100020001BC011241FBECFE5D2E0DEBFCDBF10E064
:10003000A0E6B0E0E2EEF6E002C005900D92A23834
:10004000B107D9F720E0A2E8B0E001C01D92A439C1
:10005000B207E1F789D243C3D3CFDF980895811166
:1000600001C0FBCFDF9A0895B89AD49AD59AD69852
:100070008DB18F718DB98DB18A618DB9C09A8FE1C3
:100080009EE40197F1F700C000000895C09820E0B9
:1000900030E050E0E0E424173507A4F4DC01FD91E2
:1000A000CD01FFB9EEB9769902C0689AFCCF61150F
:1000B000710529F0FFB1DB01A20FB31FFC932F5F85
:1000C0003F4FE9CFC09A0895CF93DF9300D0CDB7CB
:1000D000DEB78F71806289836A8342E060E070E0FE
:1000E000CE010196D3DF0F900F90DF91CF9108954D
:1000F0000F931F93CF93DF9300D000D0CDB7DEB71F
:100100008B018F718B838FEF8C8342E0BE016F5F19
:100110007F4FCE010396BADF8A81F80180830F906A
:100120000F900F900F90DF91CF911F910F91089535
:10013000CF93DF9300D000D0CDB7DEB7FB018F7136
:100140008062898380818A8381818B8382818C8391
:1001500044E060E070E0CE01019698DF0F900F90D0
:100160000F900F90DF91CF910895CF93DF931F925F
:10017000CDB7DEB7898341E060E070E0CE01019643
:1001800085DF0F90DF91CF910895CF93DF931F927A
:10019000CDB7DEB7BE016F5F7F4F80E0A9DF698119
:1001A0006260698380E090DF8FE097E20197F1F76A
:1001B00000C000000F90DF91CF910895CF93DF939F
:1001C0001F92CDB7DEB749DF68E080E07DDF66E0F3
:1001D00086E07ADF6CE485E077DF60E081E074DF61
:1001E00061E083E071DF60E084E06EDF82EEBDDF1E
:1001F00081EEBBDFCADFBE016F5F7F4F80E078DF3B
:100200006981616080E060DF0F90DF91CF91089598
:10021000CF93DF9300D000D0CDB7DEB780E38983E2
:100220008A8381E38B83BE016F5F7F4F8AE080DF2B
:1002300060E281E149DFBE016C5F7F4F82E058DF01
:100240006C8161606C8382E03FDF0F900F900F90B4
:100250000F90DF91CF91089581E001DF8BE291E073
:100260000197F1F700C0000081EE7FCF0F931F933D
:10027000CF93DF931F92CDB7DEB78C01BE016F5FC6
:100280007F4F87E135DF898180FF03C0F80110824D
:1002900003C081E0F80180830F90DF91CF911F911F
:1002A0000F910895CF93DF9300D01F92CDB7DEB7A3
:1002B00080E389838A8381E38B83BE016F5F7F4FF5
:1002C0008AE036DFBE016F5F7F4F80E131DF60E2A1
:1002D00081E1FADE0F900F900F90DF91CF9108959A
:1002E000CF93DF931F92CDB7DEB7B7DE8BE291E0FD
:1002F0000197F1F700C00000BE016F5F7F4F80E003
:10030000F7DE69816E7F80E0DFDE81E0A8DE8BE2D0
:1003100091E00197F1F700C0000082EE26DF0F9018
:10032000DF91CF910895EF92FF920F931F93CF9398
:10033000DF931F92CDB7DEB77C010DB71EB769837F
:100340008CDE8BE291E00197F1F700C0000069813B
:10035000262F30E02F5F3F4FEDB7FEB7E21BF30BC8
:100360000FB6F894FEBF0FBEEDBF8DB79EB70196D6
:1003700020EA2183F7019C012F5F3F4FD9014A2FCB
:10038000421B461718F441914D93F9CF41E0460FB7
:1003900060E070E07BDE81E062DE8BE291E001975D
:1003A000F1F700C000000FB6F8941EBF0FBE0DBFDE
:1003B0000F90DF91CF911F910F91FF90EF900895D3
:1003C000F89480E18BBF8ABF8EE082BB7894089559
:1003D0001F920F920FB60F9211242F933F938F937A
:1003E0009F9389B390E090938500809384008091DF
:1003F00084009091850081FF0AC0109287001092BE
:10040000860081E090E0909389008093880080913D
:1004100084009091850082FF0CC0809184009091AF
:10042000850083FF03C084E090E00EC083E090E08D
:100430000BC0809184009091850083FF03C081E010
:1004400090E002C082E090E090938B0080938A005D
:100450008091820090918300892B09F457C02091EC
:100460008A0030918B0080918200909183008217E6
:1004700093073CF481E090E090938D0080938C0092
:1004800004C010928D0010928C0080918A0090918F
:100490008B00049759F4809182009091830001971A
:1004A00029F410928D0010928C0012C080918A0065
:1004B00090918B008130910559F420918200309108
:1004C00083002430310521F490938D0080938C00BB
:1004D00080918C0090918D00019731F4809186007D
:1004E0009091870001960EC08091860090918700C0
:1004F000892B19F48FE19CE105C0809186009091D1
:1005000087000197909387008093860080918A00EE
:1005100090918B0090938300809382009F918F91A4
:100520003F912F910F900FBE0F901F901895F89448
:100530001FBC89E08EBD80E49FE19BBD8ABD1DBCD0
:100540001CBC82E08CB9789408951F920F920FB66C
:100550000F9211248F9381E080938E008F910F90E2
:100560000FBE0F901F901895CF93DF93CDB7DEB7D6
:10057000C554D1090FB6F894DEBF0FBECDBF81E2DE
:10058000E0E6F0E0DE01119601900D928A95E1F728
:1005900026961CAE1DAE1EAE1FAE269726968CADBF
:1005A0009DADAEADBFAD26978097A105B10554F5C1
:1005B00026968CAD9DADAEADBFAD269726964CADC3
:1005C0005DAD6EAD7FAD2697E2E2F0E0EC0FFD1F72
:1005D000E80FF91FA1E0B0E0AC0FBD1FA40FB51FDD
:1005E0002C91208326968CAD9DADAEADBFAD2697E8
:1005F0000196A11DB11D26968CAF9DAFAEAFBFAFCA
:100600002697CCCFBA9A2FEF81E19AE7215080400C
:100610009040E1F700C00000C29A2FE78AE196E01F
:10062000215080409040E1F700C00000C2982FE7C1
:100630008AE196E0215080409040E1F700C0000040
:1006400013DDBCDD2FDE4CDE60E2CE0182966BDE78
:10065000B7DE6DDF26961CAE1DAE1EAE1FAE269712
:10066000C29A2FE78AE196E0215080409040E1F75E
:1006700000C00000C2982FE78AE196E02150804038
:100680009040E1F700C0000026968CAD9DADAEAD68
:10069000BFAD269781319742A105B10514F0C29AEA
:1006A000FFCF80918E00813079F710928E002696D0
:1006B0008CAD9DADAEADBFAD26970196A11DB11D10
:1006C00026968CAF9DAFAEAFBFAF269780E0C7DC5C
:1006D00060E2CE01829627DE81E0C1DCD5CFF894BE
:0206E000FFCF4A
:1006E20048692054484F4D415321204869204D69A3
:1006F2006B6B656C21204869204D696B6B656C21C1
:020702000000F5
:00000001FF
