:1000000010C01FC027C01DC01CC01BC01AC019C013
:1000100018C017C016C015C014C013C012C011C03C
:1000200010C011241FBECFE5D2E0DEBFCDBF20E05F
:10003000A0E6B0E001C01D92AC36B207E1F7B9D03E
:10004000E1C0DECFF89480E18BBF8ABF8EE082BB37
:10005000789408951F920F920FB60F9211242F9348
:100060003F938F939F9389B390E090936300809325
:100070006200809162009091630081FF0AC010923B
:1000800065001092640081E090E090936700809397
:100090006600809162009091630082FF0CC08091A5
:1000A00062009091630083FF03C084E090E00EC083
:1000B00083E090E00BC0809162009091630083FF29
:1000C00003C081E090E002C082E090E0909369007C
:1000D000809368008091600090916100892B09F401
:1000E00057C0209168003091690080916000909124
:1000F0006100821793073CF481E090E090936B00DD
:1001000080936A0004C010926B0010926A00809184
:10011000680090916900049759F480916000909173
:100120006100019729F410926B0010926A0012C0CE
:1001300080916800909169008130910559F4209177
:100140006000309161002430310521F490936B0000
:1001500080936A0080916A0090916B00019731F45E
:10016000809164009091650001960EC080916400BA
:1001700090916500892B19F48FE19CE105C0809175
:1001800064009091650001979093650080936400EE
:100190008091680090916900909361008093600065
:1001A0009F918F913F912F910F900FBE0F901F90B5
:1001B000189548DF84E087BB8091660090916700C6
:1001C000892BA9F4C29A2FEF80E792E0215080405A
:1001D0009040E1F700C00000C2982FEF80E792E066
:1001E000215080409040E1F700C00000E5CF8091B1
:1001F00064009091650080319E4014F4C298DCCF79
:08020000C29ADACFF894FFCF97
:00000001FF
