:1000000010C02AC0E5C128C027C026C0A0C224C095
:1000100023C022C021C020C01FC01EC01DC01CC0E4
:100020001BC011241FBECFE5D2E0DEBFCDBF10E064
:10003000A0E6B0E0ECECFCE002C005900D92AA381E
:10004000B107D9F720E0AAE8B0E001C01D92AC39B1
:10005000B207E1F78BD238C6D3CFDF98089581116C
:1000600001C0FBCFDF9A0895B89AD49AD59AD69852
:100070008DB18F718DB98DB18A618DB9C09A8FE1C3
:100080009EE40197F1F700C000000895C09820E0B9
:1000900030E050E0E0E424173507A4F4DC01FD91E2
:1000A000CD01FFB9EEB9769902C0689AFCCF61150F
:1000B000710529F0FFB1DB01A20FB31FFC932F5F85
:1000C0003F4FE9CFC09A0895CF93DF9300D0CDB7CB
:1000D000DEB78F71806289836A8342E060E070E0FE
:1000E000CE010196D3DF0F900F90DF91CF9108954D
:1000F0000F931F93CF93DF9300D000D0CDB7DEB71F
:100100008B018F718B838FEF8C8342E0BE016F5F19
:100110007F4FCE010396BADF8A81F80180830F906A
:100120000F900F900F90DF91CF911F910F91089535
:10013000CF93DF9300D000D0CDB7DEB7FB018F7136
:100140008062898380818A8381818B8382818C8391
:1001500044E060E070E0CE01019698DF0F900F90D0
:100160000F900F90DF91CF910895CF93DF931F925F
:10017000CDB7DEB7898341E060E070E0CE01019643
:1001800085DF0F90DF91CF910895CF93DF931F927A
:10019000CDB7DEB7BE016F5F7F4F80E0A9DF698119
:1001A0006260698380E090DF8FE097E20197F1F76A
:1001B00000C000000F90DF91CF910895CF93DF939F
:1001C0001F92CDB7DEB749DF68E080E07DDF66E0F3
:1001D00086E07ADF6CE485E077DF60E081E074DF61
:1001E00061E083E071DF60E084E06EDF82EEBDDF1E
:1001F00081EEBBDFCADFBE016F5F7F4F80E078DF3B
:100200006981616080E060DF0F90DF91CF91089598
:10021000CF93DF9300D000D0CDB7DEB780E38983E2
:100220008A8381E38B83BE016F5F7F4F8AE080DF2B
:1002300060E281E149DFBE016C5F7F4F82E058DF01
:100240006C8161606C8382E03FDF0F900F900F90B4
:100250000F90DF91CF91089581E001DF8BE291E073
:100260000197F1F700C0000081EE7FCF0F931F933D
:10027000CF93DF931F92CDB7DEB78C01BE016F5FC6
:100280007F4F87E135DF898180FF03C0F80110824D
:1002900003C081E0F80180830F90DF91CF911F911F
:1002A0000F910895CF93DF9300D01F92CDB7DEB7A3
:1002B00080E389838A8381E38B83BE016F5F7F4FF5
:1002C0008AE036DFBE016F5F7F4F80E131DF60E2A1
:1002D00081E1FADE0F900F900F90DF91CF9108959A
:1002E000CF93DF931F92CDB7DEB7B7DE8BE291E0FD
:1002F0000197F1F700C00000BE016F5F7F4F80E003
:10030000F7DE69816E7F80E0DFDE81E0A8DE8BE2D0
:1003100091E00197F1F700C0000082EE26DF0F9018
:10032000DF91CF910895EF92FF920F931F93CF9398
:10033000DF931F92CDB7DEB77C010DB71EB769837F
:100340008CDE8BE291E00197F1F700C0000069813B
:10035000262F30E02F5F3F4FEDB7FEB7E21BF30BC8
:100360000FB6F894FEBF0FBEEDBF8DB79EB70196D6
:1003700020EA2183F7019C012F5F3F4FD9014A2FCB
:10038000421B461718F441914D93F9CF41E0460FB7
:1003900060E070E07BDE81E062DE8BE291E001975D
:1003A000F1F700C000000FB6F8941EBF0FBE0DBFDE
:1003B0000F90DF91CF911F910F91FF90EF900895D3
:1003C000F89480E18BBF8ABF8EE082BB7894089559
:1003D0001F920F920FB60F9211242F933F938F937A
:1003E0009F9389B390E090938D0080938C008091CF
:1003F0008C0090918D0081FF0CC080EA9FE090936B
:100400008F0080938E0081E090E090939100809324
:10041000900080918C0090918D0082FF0CC08091A3
:100420008C0090918D0083FF03C084E090E00EC0AB
:1004300083E090E00BC080918C0090918D0083FF51
:1004400003C081E090E002C082E090E090939300CE
:100450008093920080918A0090918B00892B09F4FF
:1004600057C0209192003091930080918A00909122
:100470008B00821793073CF481E090E09093950005
:100480008093940004C01092950010929400809183
:10049000920090919300049759F480918A00909172
:1004A0008B00019729F4109295001092940012C0CD
:1004B00080919200909193008130910559F42091A0
:1004C0008A0030918B002430310521F490939500FF
:1004D000809394008091940090919500019731F45D
:1004E00080918E0090918F0001960EC080918E00B9
:1004F00090918F00892B19F48FE19CE105C08091C8
:100500008E0090918F00019790938F0080938E00C2
:10051000809192009091930090938B0080938A0039
:100520009F918F913F912F910F900FBE0F901F9031
:100530001895F8941FBC89E08EBD80E49FE19BBDB7
:100540008ABD1DBC1CBC82E08CB9789408951F92B2
:100550000F920FB60F9211248F9381E08093960033
:100560008F910F900FBE0F901F901895CF93DF9330
:10057000CDB7DEB7C754D1090FB6F894DEBF0FBEB2
:10058000CDBF83E2E6E6F0E0DE01119601900D9228
:100590008A95E1F728961CAE1DAE1EAE1FAE2897B9
:1005A000FE013196DE019496CE0181966D01219176
:1005B0002D93E817F907D9F7BA9A2FEF81E19AE757
:1005C000215080409040E1F700C00000C29AAFE7A0
:1005D000BAE126E0A150B0402040E1F700C00000A1
:1005E000C2988FE79AE1A6E081509040A040E1F7E1
:1005F00000C0000039DDE2DD55DE72DE60E2C601DA
:1006000092DEDEDE96DF28961CAE1DAE1EAE1FAE5D
:10061000289790E3592E21E3422E30E6A32E30E0B6
:10062000B32E07E910E03E01BBE26B0E711C40E205
:10063000342E53E6852E50E0952E28968CAD9DAD38
:10064000AEADBFAD289781349244AF40B10510F0F4
:10065000C29AFFCF80919600813079F71092960070
:1006600028968CAD9DADAEADBFAD28970196A11D6E
:10067000B11D28968CAF9DAFAEAFBFAF289780E07D
:10068000EEDC8091900090919100892B11F04CA2AA
:1006900001C05CA228968CAD9DADAEADBFAD2897D4
:1006A000BF93AF939F938F93BF92AF921F930F937C
:1006B0003AD087E9E82E80E0F82EFE01B6960FB614
:1006C000F894DEBF0FBECDBFD7018D9190ED980F8E
:1006D0009A3010F4808301C030823196E615F70518
:1006E000A1F780918E0090918F009F938F939F929E
:1006F0008F921F930F9317D0FE01BF960F900F900C
:100700000F900F900F900F90D7018D917D018193E5
:10071000BCE9EB16B0E0FB06B9F760E2C60103DE08
:1007200081E09DDC8ACFAEE0B0E0E8E9F3E0A3C26F
:100730000D891E8986E08C831A8309838FEF9FE7DA
:100740009E838D83AE01475E5F4F6F89788DCE01AA
:10075000019609D02F813885F801E20FF31F10822E
:100760002E96E4E0A4C2ACE0B0E0E8EBF3E075C2A2
:100770007C016B018A01FC0117821682838181FF53
:10078000B0C1CE0101964C01F7019381F60193FDB2
:10079000859193FF81916F01882309F49EC1853271
:1007A00039F493FD859193FF81916F01853221F496
:1007B000B70190E0B1D1E8CF512C312C20E02032AC
:1007C000A0F48B3269F030F4803259F0833269F44E
:1007D00020612CC08D3239F0803339F4216026C07D
:1007E0002260246023C0286021C027FD27C030ED8F
:1007F000380F3A3078F426FF06C0852D6AE024D2FF
:10080000582E530E13C0832D6AE01ED2382E330E9D
:1008100020620CC08E3221F426FD5FC1206406C028
:100820008C3611F4206802C0883641F4F60193FD3D
:10083000859193FF81916F018111C1CF982F9F7D89
:100840009554933028F40C5F1F4FFFE3F9830DC0DC
:10085000833631F0833771F0833509F057C021C0FA
:10086000F801808189830E5F1F4F44244394512CEB
:10087000540114C03801F2E06F0E711CF801A08021
:10088000B18026FF03C0652D70E002C06FEF7FEFDF
:10089000C5012C8736D12C0183012C852F77222E80
:1008A00016C03801F2E06F0E711CF801A080B18013
:1008B00026FF03C0652D70E002C06FEF7FEFC5011A
:1008C0002C8714D12C012C852068222E830123FC37
:1008D00019C0832D90E048165906A0F4B70180E2B4
:1008E00090E01AD13A94F5CFF50127FC859127FEC7
:1008F00081915F01B70190E00FD131103A94F1E09E
:100900004F1A51084114510479F7DEC0843611F0B2
:10091000893631F5F80127FF07C060817181828136
:1009200093810C5F1F4F08C060817181072E000CFE
:10093000880B990B0E5F1F4F2F76722E97FF09C001
:1009400090958095709561957F4F8F4F9F4F206850
:10095000722E2AE030E0A40117D1A82EA81843C0B7
:10096000853729F42F7EB22E2AE030E025C0F22F01
:10097000F97FBF2E8F36C1F018F4883579F0ADC0FD
:10098000803719F0883721F0A8C02F2F2061B22EB0
:10099000B4FE0DC08B2D8460B82E09C024FF0AC0A0
:1009A0009F2F9660B92E06C028E030E005C020E1F8
:1009B00030E002C020E132E0F801B7FE07C06081FC
:1009C0007181828193810C5F1F4F06C060817181AC
:1009D00080E090E00E5F1F4FA401D6D0A82EA8188B
:1009E000FB2DFF777F2E76FE0BC0372D3E7FA514A3
:1009F00050F474FE0AC072FC08C0372D3E7E05C05C
:100A0000BA2C372D03C0BA2C01C0B52C34FF0DC051
:100A1000FE01EA0DF11D8081803311F4397E09C099
:100A200032FF06C0B394B39404C0832F867809F0D4
:100A3000B39433FD12C030FF06C05A2CB31418F41F
:100A4000530C5B18B32CB31460F4B70180E290E050
:100A50003C8762D0B3943C85F6CFB31410F43B18B6
:100A600001C0312C34FF11C0B70180E390E03C8716
:100A700053D03C8532FF16C031FD03C088E790E0BB
:100A800002C088E590E0B7010CC0832F867851F052
:100A900031FF02C08BE201C080E237FD8DE2B70179
:100AA00090E03AD0A51430F4B70180E390E034D060
:100AB0005A94F8CFAA94F401EA0DF11D8081B70190
:100AC00090E02AD0A110F6CF332009F45DCEB70113
:100AD00080E290E021D03A94F7CFF70186819781A8
:100AE00002C08FEF9FEF2C96E2E1D3C0FC0105908E
:100AF000615070400110D8F7809590958E0F9F1F20
:100B00000895FC016150704001900110D8F7809564
:100B100090958E0F9F1F08950F931F93CF93DF9390
:100B2000FB01238121FD03C08FEF9FEF28C022FF2F
:100B300016C046815781248135814217530744F4FA
:100B4000A081B1819D012F5F3F4F318320838C9322
:100B5000268137812F5F3F4F3783268310C0EB01FB
:100B6000092F182F0084F185E02D0995892BE1F6D6
:100B70008E819F8101969F838E83812F902FDF919D
:100B8000CF911F910F910895FA01AA27283061F1A2
:100B9000203191F1E8946F936E7F6E5F7F4F8F4F9E
:100BA0009F4FAF4FB1E040D0B4E03ED0670F781F09
:100BB000891F9A1FA11D680F791F8A1F911DA11DF2
:100BC0006A0F711D811D911DA11D22D009F4689429
:100BD0003F91062E000C3019000C000C3019305DCE
:100BE0003193CEF6CF010895462F4770405D419373
:100BF000B3E00FD0C9F7F6CF462F4F70405D4A33B0
:100C000018F0495D31FD4052419302D0A9F7EACF77
:100C1000B4E0A6959795879577956795BA95C9F7A6
:100C200000976105710508959B01AC010A2E069499
:100C30005795479537952795BA95C9F7620F731F52
:100C4000841F951FA01D0895002480FD060E660FC9
:100C500011F08695D1F7802D08952F923F924F92F3
:100C60005F926F927F928F929F92AF92BF92CF923C
:100C7000DF92EF92FF920F931F93CF93DF93CDB745
:100C8000DEB7CA1BDB0B0FB6F894DEBF0FBECDBFBD
:100C900009942A88398848885F846E847D848C848E
:100CA0009B84AA84B984C884DF80EE80FD800C8197
:100CB0001B81AA81B981CE0FD11D0FB6F894DEBF7A
:0C0CC0000FBECDBFED010895F894FFCFEA
:100CCC00257500256400432C202020202020202086
:100CDC002C202020202020202020202020202020FC
:0A0CEC0020202020202020200000FE
:00000001FF
