:1000000010C022C021C020C01FC01EC01DC01CC007
:100010001BC01AC019C018C017C016C015C014C024
:1000200013C011241FBECFE5D2E0DEBFCDBF10E06C
:10003000A0E6B0E0E8EDF4E002C005900D92A6382D
:10004000B107D9F7DBD146C2DBCFDF980895811124
:1000500001C0FBCFDF9A0895B89AD49AD59AD69862
:100060008DB18F718DB98DB18A618DB9C09A8FE1D3
:100070009EE40197F1F700C000000895C09820E0C9
:1000800030E050E0E0E424173507A4F4DC01FD91F2
:10009000CD01FFB9EEB9769902C0689AFCCF61151F
:1000A000710529F0FFB1DB01A20FB31FFC932F5F95
:1000B0003F4FE9CFC09A0895CF93DF9300D0CDB7DB
:1000C000DEB78F71806289836A8342E060E070E00E
:1000D000CE010196D3DF0F900F90DF91CF9108955D
:1000E0000F931F93CF93DF9300D000D0CDB7DEB72F
:1000F0008B018F718B838FEF8C8342E0BE016F5F2A
:100100007F4FCE010396BADF8A81F80180830F907A
:100110000F900F900F90DF91CF911F910F91089545
:10012000CF93DF9300D000D000D0CDB7DEB7FB0176
:100130008F718062898380818A8381818B838281B0
:100140008C8383818D8384818E8346E060E070E0C0
:10015000CE01019693DF26960FB6F894DEBF0FBE50
:10016000CDBFDF91CF910895CF93DF931F92CDB78D
:10017000DEB7898341E060E070E0CE0101967EDF6A
:100180000F90DF91CF910895CF93DF931F92CDB75A
:10019000DEB7BE016F5F7F4F80E0A2DF69816260E2
:1001A000698380E089DF8FE097E20197F1F700C073
:1001B00000000F90DF91CF910895CF93DF9300D08F
:1001C000CDB7DEB742DF6CE080E076DFBE016E5F68
:1001D0007F4F86E085DF6A81677D6A8386E06CDF1A
:1001E0006CE485E069DF82EEBFDF81EEBDDFCCDF4E
:1001F000BE016F5F7F4F80E073DF6981616080E0E7
:100200005BDF0F900F90DF91CF910895CF93DF9335
:1002100000D000D000D0CDB7DEB785E0E0E6F0E05A
:10022000DE01119601900D928A95E1F7BE016F5F94
:100230007F4F8AE075DF60E281E13EDFBE016A5FE9
:100240007F4F82E04DDF6E8161606E8382E034DF3C
:1002500026960FB6F894DEBF0FBECDBFDF91CF91CB
:10026000089581E0F4DE8BE291E00197F1F700C0A0
:10027000000081EE79CF0F931F93CF93DF931F92EE
:10028000CDB7DEB78C01BE016F5F7F4F87E128DFFE
:10029000898180FF03C0F801108203C081E0F8016A
:1002A00080830F90DF91CF911F910F910895CF938D
:1002B000DF9300D000D01F92CDB7DEB785E0E0E637
:1002C000F0E0DE01119601900D928A95E1F7BE01F2
:1002D0006F5F7F4F8AE024DFBE016F5F7F4F80E159
:1002E0001FDF60E281E1E8DE0F900F900F900F902A
:1002F0000F90DF91CF910895CF93DF931F92CDB7E9
:10030000DEB7BE016F5F7F4F86E0EADE698166601F
:1003100086E0D2DE0F90DF91CF910895CF93DF93E7
:100320001F92CDB7DEB791DE8BE291E00197F1F736
:1003300000C00000BE016F5F7F4F80E0D1DE6981A9
:100340006E7F80E0B9DE81E082DE8BE291E0019792
:10035000F1F700C0000082EE07DF0F90DF91CF9130
:100360000895EF92FF920F931F93CF93DF931F9205
:10037000CDB7DEB77C010DB71EB7698366DE8BE2B1
:1003800091E00197F1F700C000006981262F30E06D
:100390002F5F3F4FEDB7FEB7E21BF30B0FB6F8949C
:1003A000FEBF0FBEEDBF8DB79EB7019620EA218339
:1003B000F7019C012F5F3F4FD9014A2F421B46177F
:1003C00018F441914D93F9CF41E0460F60E070E0A1
:1003D00055DE81E03CDE8BE291E00197F1F700C051
:1003E00000000FB6F8941EBF0FBE0DBF0F90DF9137
:1003F000CF911F910F91FF90EF900895CF93DF93CE
:10040000CDB7DEB7C354D1090FB6F894DEBF0FBE27
:10041000CDBF81E2E5E6F0E0DE01119601900D929C
:100420008A95E1F7FE013196DE019296CE01819622
:100430008D0121912D93E817F907D9F7BA9A2FEF7B
:1004400081E19AE7215080409040E1F700C0000030
:10045000C29A2FE78AE196E0215080409040E1F770
:1004600000C00000C2982FE78AE196E0215080404A
:100470009040E1F700C00000EFDD9FDE18DF3CDFB9
:100480004DDF60E2C8016DDF81E0E1DD8BE291E0EC
:100490000197F1F700C00000BE016D5B7F4F87E15F
:1004A0001FDE60E787E008DE80E0D1DD8FEC97E0BB
:1004B0000197F1F700C0000060E2C80152DFBE0101
:1004C0006E5B7F4F87E10CDE23968FAD23978130E3
:0804D000D9F6D7CFF894FFCF55
:1004D800303030303148692054484F4D4153212045
:1004E8004869204D696B6B656C21204869204D690E
:0604F8006B6B656C210036
:00000001FF
