:1000000010C01FC01EC01DC01CC01BC029C019C00D
:1000100018C017C016C015C014C013C012C011C03C
:1000200010C011241FBECFE5D2E0DEBFCDBF20E05F
:10003000A0E6B0E001C01D92A236B207E1F732D0CF
:1000400038C0DECFF8941FBC89E08EBD80E095E01B
:100050009BBD8ABD1DBC1CBC82E08CB97894089500
:100060001F920F920FB60F9211248F939F9380913E
:10007000600090916100892B49F480E28BBB81E0A4
:1000800090E0909361008093600005C0DD9810922D
:100090006100109260009F918F910F900FBE0F90A2
:1000A0001F901895C4E0C7BB80E28ABBCBDFC8BBFA
:0600B000FFCFF894FFCF22
:00000001FF
