:1000000010C01FC01EC01DC01CC01BC029C019C00D
:1000100018C017C016C015C014C013C012C011C03C
:1000200010C011241FBECFE5D2E0DEBFCDBF20E05F
:10003000A0E6B0E001C01D92A236B207E1F71AD0E7
:1000400020C0DECFF8941FBC89E08EBD80E095E033
:100050009BBD8ABD1DBC1CBC82E08CB97894089500
:100060001F920F920FB60F9211240F900FBE0F9098
:100070001F901895C4E0C7BB80E28ABBE3DFC8BB12
:06008000FFCFF894FFCF52
:00000001FF
