:1000000010C01FC01EC01DC01CC01BC029C019C00D
:1000100018C017C016C015C014C013C012C011C03C
:1000200010C011241FBECFE5D2E0DEBFCDBF20E05F
:10003000A0E6B0E001C01D92A436B207E1F735D0CA
:100040005CC0DECFF8941FBC89E08EBD80E095E0F7
:100050009BBD8ABD1DBC1CBC82E08CB97894089500
:100060001F920F920FB60F9211248F939F93AF930D
:10007000BF938091600090916100A0916200B09167
:1000800063000196A11DB11D8093600090936100F3
:10009000A0936200B0936300BF91AF919F918F9145
:1000A0000F900FBE0F901F901895C4E0C7BB80E261
:1000B0008ABBC8DFC8BBC29A2FE78AE196E021500D
:1000C00080409040E1F700C00000C2982FE78AE12D
:1000D00096E0215080409040E1F700C00000809100
:1000E000600090916100A0916200B091630080FF78
:0E00F00002C0C29AF4CFC298F2CFF894FFCFAC
:00000001FF
